:0E0BFB00F7FBFDFEC0F9A4B0999282F880903D
:100B4300011605010F00010C00010E02041800003C
:090B53000000010D000208000081
:10093800E4FFFE120B738F147F007E02120B738F7D
:100948000AE4F50C120BEA851410850B11D2AFD20C
:10095800A8D288120BB37590BEE50D7016120BEA7B
:10096800E5107003120A4FE5117003120A89120983
:0B097800CD80E6120B251209CD80DEB9
:0300030002088C64
:10088C00C0E0C0F0C083C082C0D075D000C000C032
:10089C0001C002C003C004C005C006C0077F0A7EA9
:1008AC0000120B5D050DE50D64027002F50DE50DF2
:1008BC00146007047006D28C8002C28CD007D0065C
:1008CC00D005D004D003D002D001D000D0D0D0823B
:0708DC00D083D0F0D0E03220
:03000B00020A10D6
:100A1000C0E0758A00758C4C050FE50F6414700EEC
:100A2000F50FE51060021510E51160021511E50CD7
:100A300064017009E50F54017003639002E50E64D0
:0F0A4000017009E50F54017003639020D0E0327C
:100BEA00851617C3E50A9517F515E5142516F50BAD
:010BFA0022D8
:100A4F00050CE50C64037002F50CE50C146013142F
:100A5F00601C24027023E59054F0851410440EF5A9
:100A6F009022E59054F0851610440DF59022E590F4
:090A7F0054F0850A10440BF590B7
:010A8800224B
:100A8900050EE50E64037002F50EE50E14601314ED
:100A9900601C24027023E590540F85151144E0F57C
:100AA9009022E590540F85171144D0F59022E590D6
:090AB900540F850B1144B0F590B7
:010AC2002211
:10098300AE12AF137C007D0A1208E38D18AE12AFCE
:10099300137C007D0A1208E37C007D0A1208E38DB4
:1009A30019AE12AF137C007D641208E37C007D0A4C
:1009B3001208E38D1AAE12AF137C037DE81208E32D
:0A09C3007C007D0A1208E38D1B2260
:1009CD00E51075F064A4AEF07C002511F513EC3E36
:1009DD00F512120983E4F51CC3E51C94047480948C
:1009ED0080501F7418251CF8E6900BFF93F580E5D9
:1009FD001C900BFB93F5A07F027E00120B5D051C76
:020A0D0080D691
:010A0F0022C4
:100AC300AFB0EFF4602C7F0A7E00120B5DAFB0EF86
:100AD300F46024E5094508701EF508750901AFB0F7
:100AE300EF64DF70037F0122AFB0EF64EF70087F24
:090AF3000222E4F508F5097F0078
:010AFC0022D7
:100B2500120AC3EF24FE6007047012051080021537
:0D0B350010120AFD120BC6120BEA120BD8AB
:010B42002290
:100AFD00E50C24FE60112402701DE4FFFE120B9F15
:100B0D00AD10E4FFFE800D7F007E02120B9FAD1035
:080B1D007F007E02120B892209
:100BC600E4FFFE120B738F147F007E02120B738FED
:020BD6000A22F1
:100BD800E50E24FE60082402700785151122850B96
:020BE8001122D8
:100BB3005389F0438901E4F58A758C4CC28DD28C3C
:030BC300D2A92292
:100B5D00EF1FAC0670011E4C600B007D0B7CBEDCE4
:050B6D00FEDDFC80EB41
:010B72002260
:0D0C0900E4F5C7F5C5F5C675C380F5C42236
:100B730075C78375C5018FC48EC375C65A75C6A55F
:060B830000AFC2020C09E4
:100B890075C78375C5028FC48EC38DC275C65A7564
:060B9900C6A500020C09D4
:100B9F0075C78375C5038FC48EC375C65A75C6A531
:040BAF0000020C092B
:03000000020800F3
:0C080000787FE4F6D8FD75811C020847E3
:1008E300BC000BBE0029EF8DF084FFADF022E4CCF9
:1008F300F875F008EF2FFFEE33FEEC33FCEE9DECC2
:10090300984005FCEE9DFE0FD5F0E9E4CEFD22ED07
:10091300F8F5F0EE8420D21CFEADF075F008EF2F51
:10092300FFED33FD4007985006D5F0F222C398FD42
:050933000FD5F0EA22DF
:10080C00020938E493A3F8E493A34003F68001F2C1
:10081C0008DFF48029E493A3F85407240CC8C333ED
:10082C00C4540F4420C8834004F456800146F6DFBC
:10083C00E4800B0102040810204080900B43E47EFE
:10084C00019360BCA3FF543F30E509541FFEE493B1
:10085C00A360010ECF54C025E060A840B8E493A378
:10086C00FAE493A3F8E493A3C8C582C8CAC583CAA3
:10087C00F0A3C8C582C8CAC583CADFE9DEE780BE5B
:010B5C000098
:00000001FF
