:0E0DC300C0F9A4B0999282F88090F7FBFDFE73
:060DD10004110000000007
:100CD000120DB0E4FF120C4CE4FBFA797A7844125E
:100CE00008F8120ADC8E0F8F10120D2EE4F508AFF3
:100CF00008C3EF94047480948050D8EF6403700F9D
:100D000074112FF8E6900DC393547FF580800C7416
:100D1000112508F8E6900DC393F580E508900DCDF8
:0E0D200093F5A07F027E00120D9B050880C196
:100D9B00EF1FAC0670011E4C600A7D0B7CBEDCFEA7
:040DAB00DDFC80ECFF
:010DAF002221
:100DB000E4F5BDF5BE759D01F5A275BC807F02FE10
:030DC000020D9B86
:020C4C008F090E
:100C4E00E4F50EC3E50E940A748094805034AB0D17
:100C5E00AA0CA90BA80AC000C001C002C003AF09AC
:100C6E00120D78AC06AD07E4120AA3D003D002D061
:100C7E0001D0001208078F0D8E0C8D0B8C0A050EFD
:100C8E0080C1AF0DAE0CAD0BAC0AE4FBFA79207847
:100C9E0041120A018F0D8E0C8D0B8C0A7F1F7E85E3
:100CAE007DA37C40AB0DAA0CA90BA80A1208F8E490
:100CBE00FBFA79807844120A018F0D8E0C8D0B8C05
:010CCE000A1B
:010CCF002202
:100D7800EF4488F5BC00000000E5BC30E4FB53BC40
:100D8800E7AFBDEF75F004A4ADBE7C002DFFEC35D8
:030D9800F0FE2248
:100D2E00AE0FAF107C007D0A120B5D8D11AE0FAFB2
:100D3E00107C007D0A120B5D7C007D0A120B5D8D0E
:100D4E0012AE0FAF107C007D64120B5D7C007D0A2D
:100D5E00120B5D8D13AE0FAF107C037DE8120B5D91
:0A0D6E007C007D0A120B5D8D14223B
:10080000020B48E86480F8E933E83360110460F0D3
:10081000ED33EC337009E8FCE9FDEAFEEBFF22045E
:1008200060DED3EB9FEA9EE99DE8C2E78CF0C2F759
:1008300095F0400CE8CCF8E9CDF9EACEFAEBCFFB25
:10084000120B1385D0F05804700320D5B3E8047060
:10085000075002B2D5020B5292D5EC0460F7E4CCFB
:10086000C0E0C398F8603B94186008400DD0E0FBEE
:10087000020B2AE4FBFAC9FC8028E830E406E4C94C
:10088000FBE4CAFCE830E305E4C9CACBFCE8540742
:100890006010F8C3E913F9EA13FAEB13FBEC13FC4D
:1008A000D8F130F52FC3E49CFCEF9BFFEE9AFEEDF0
:1008B00099FDD0E0FBEF4E4D4C701222DB03020B92
:1008C0004FEC2CFCEF33FFEE33FEED33FDED30E764
:1008D000EB020B2AEF2BFFEE3AFEED39FDD0E0FBE9
:1008E00050130BBB0003020B52ED13FDEE13FEEF92
:0808F00013FFEC13FC020B2ABC
:1008F800EC4D6011E8497017ED33EC3304600DE4FA
:10090800FCFFFEFD22E933E8330470F8020B4812BD
:100918000B1358046009E4CC2481500628500902BE
:100928000B52284003020B4FC0E0EB4A7044B980D9
:1009380006D0E0FB020B3EEF4E701CBD8008EBFFBB
:10094800EAFEE9FD80EBE98DF0A4FEE5F00209E19D
:10095800E9CDF9EAFEEBFFEF89F0A4FCE5F0CE89DA
:10096800F0A42EFFE435F0CD89F0A42DFEE435F097
:100978008067EF4E7005BD80D780C3EF8BF0A4ACC5
:10098800F0EE8BF0A42CFCE435F0F8EF8AF0A42C00
:10099800E5F038FCE433CB8DF0A42CFCE5F03BF813
:1009A800EE8AF0A42CFCE5F038F8E433CF89F0A403
:1009B8002CFCE5F038CF3400CE89F0A42FFFE5F009
:1009C8003EFEE433C98DF0A42EFEE5F039CD8AF061
:1009D800A42FFFE5F03EFEE43DFD33D0E0FB5007D9
:1009E8000BBB000F020B52EC2CFCEF33FFEE33FE77
:0609F800ED33FD020B2AA5
:1009FE00020B52EC5D046005E859047003020B48CB
:100A0E00120B13580460F6EC4860F2EC7004FDFE15
:100A1E00FF22C860DB2481C85009C39860025006CB
:100A2E00020B4F9850CAF582E9294B4A7005AB82EA
:100A3E00020B3E75F0007C1A7880C3EF9BEE9AEDA8
:100A4E0099400DC3EF9BFFEE9AFEED99FDE842F043
:100A5E00DC23ACF0D0E0FFD0E0FED0E0FDAB822096
:100A6E00E7101BEB60BAEC2CFCEF33FFEE33FEED20
:100A7E0033FD020B2AE803F830E705C0F075F000ED
:100A8E00EF2FFFEE33FEED33FD40B830E7C280AA04
:100A9E0075F020800E75F010800575F0087D007ED3
:100AAE00007F003392D530D503120BB2EC334010D9
:100ABE00EF33FFEE33FEED33FDEC33FCD5F0ED22DC
:0E0ACE00E5F0247EA2D513CC92E7CDCEFF2218
:100ADC00EDD2E7CD33EC3392D524814006E4FFFE12
:100AEC00FDFC22FCE4CFCECDCC24E0501174FF8071
:100AFC00EDC3CC13CCCD13CDCE13CECF13CF04700E
:070B0C00F030D5DE020BB250
:100B1300E9D2E7C933E833F892D5EDD2E7CD33EC28
:070B230033FC5002B2D522A1
:100B2A00EC30E7100FBF000C0EBE00080DBD00042C
:100B3A000BEB6014A2D5EB13FCED92E7FD2274FFD8
:100B4A00FCFDFEFF22E480F8A2D574FF13FC7D8031
:030B5A00E480EF45
:03000000020BC030
:0C0BC000787FE4F6D8FD758114020C0764
:100B5D00BC000BBE0029EF8DF084FFADF022E4CC7C
:100B6D00F875F008EF2FFFEE33FEEC33FCEE9DEC45
:100B7D00984005FCEE9DFE0FD5F0E9E4CEFD22ED8B
:100B8D00F8F5F0EE8420D21CFEADF075F008EF2FD5
:100B9D00FFED33FD4007985006D5F0F222C398FDC6
:050BAD000FD5F0EA2263
:0E0BB200C3E49FFFE49EFEE49DFDE49CFC2254
:100BCC00020CD0E493A3F8E493A34003F68001F263
:100BDC0008DFF48029E493A3F85407240CC8C3332A
:100BEC00C4540F4420C8834004F456800146F6DFF9
:100BFC00E4800B0102040810204080900DD1E47EAB
:100C0C00019360BCA3FF543F30E509541FFEE493ED
:100C1C00A360010ECF54C025E060A840B8E493A3B4
:100C2C00FAE493A3F8E493A3C8C582C8CAC583CADF
:100C3C00F0A3C8C582C8CAC583CADFE9DEE780BE97
:010DD700001B
:00000001FF
