:100A87006A69616F79616E2077726F6E670D0A0010
:100A97006368616E6764752077726F6E670D0A0011
:100AA700726967687421212020202020200D0A0008
:100AB700758920758DE8758BE8759850E4F587D2B0
:100AC7008ED2AFD2AC7590FFE50D60FC120A09E437
:040AD700F50D80F4A5
:0300230002092EA1
:10092E00C0E0C0F0C083C082C0D075D000C000C08F
:0D093E0001C002C003C004C005C006C00710
:10094B0030987BC298AF080508740F2FF8A69974DE
:10095B000E2508F8E664AF7039E50E7035740D2579
:10096B0008F8E664FA701AFE7F32FDFB7A00790F05
:10097B00120902750FFA7510AF750802750E01801A
:10098B001F7E007F327D007B007A00790F120902F7
:10099B00800BD3E508943274809480400375080073
:1009AB00740E2508F8E6640A7014740D2508F8E631
:1009BB0064A0700A750D0185080CF508F50E3099C9
:1009CB0022C299D3E50B9400748094804015AB73CD
:1009DB000575E575AA747002057414F9120800F513
:0309EB0099150B50
:1009EE00D007D006D005D004D003D002D001D0005D
:0B09FE00D0D0D082D083D0F0D0E03207
:100ADB008B738A7489758D0B150B0575E575700213
:0A0AEB00057414F9120800F59922B1
:100A0900E4F509F50AFFE50C24FCFEEFD39E50112D
:100A1900740F2FF8E6250AF50AE43509F5090F8060
:100A2900E5740C250CF8E6650A600E78417C007DBA
:100A3900007BFF7A0A79878014E50C24FA65116036
:100A49001A78417C007D007BFF7A0A79971208E5C4
:100A59007B007A0079417D14020ADBE512F4F590F6
:100A690078417C007D007BFF7A0A79A71208E57B33
:0D0A7900007A0079417D14120ADBE4F50DCE
:010A8600224D
:03000000020AF5FC
:0C0AF500787FE4F6D8FD758175020AB721
:10080000BB010689828A83E0225002E722BBFE02F6
:09081000E32289828A83E4932229
:10081900E709F60870FA8046E709F20870FA803E9F
:1008290088828C83E709F0A370FA807EE309F608D1
:1008390070FA8076E309F20870FA806E88828C83F8
:10084900E309F0A370FA806289828A83E0A3F6083B
:1008590070FA805689828A83E0A3F20870FA804A86
:1008690080D280FA80C680D4806580F28031801081
:1008790080A680EA809A80A880DA80E280CA8031E6
:1008890089828A83ECFAE493A3C8C582C8CCC5835C
:10089900CCF0A3C8C582C8CCC583CC70E9800D89CA
:1008A900828A83E493A3F60870F9ECFAA9F0EDFBC8
:1008B9002289828A83ECFAE0A3C8C582C8CCC583A1
:1008C900CCF0A3C8C582C8CCC583CC70EA80DD89C9
:1008D900828A83E493A3F20870F980CE88F0ED242C
:1008E90002B4040050C4F582EB2402B4040050BAE7
:0908F90023234582239008697352
:10090200EF4E6012EF60010EEDBB010B89828A830C
:10091200F0A3DFFCDEFA2289F05007F709DFFCA919
:0C092200F022BBFEFCF309DFFCA9F02270
:00000001FF
